{
  "contractName": "Animes",
  "abi": [
    {
      "constant": true,
      "inputs": [
        {
          "name": "",
          "type": "uint256"
        }
      ],
      "name": "animes",
      "outputs": [
        {
          "name": "id",
          "type": "uint256"
        },
        {
          "name": "name",
          "type": "string"
        },
        {
          "name": "myRate",
          "type": "uint256"
        },
        {
          "name": "myanimelistRate",
          "type": "uint256"
        },
        {
          "name": "description",
          "type": "string"
        },
        {
          "name": "dateDoneWatching",
          "type": "uint256"
        },
        {
          "name": "status",
          "type": "string"
        },
        {
          "name": "ending",
          "type": "string"
        }
      ],
      "payable": false,
      "stateMutability": "view",
      "type": "function",
      "signature": "0x2bcba1dd"
    },
    {
      "constant": true,
      "inputs": [],
      "name": "animeCount",
      "outputs": [
        {
          "name": "",
          "type": "uint256"
        }
      ],
      "payable": false,
      "stateMutability": "view",
      "type": "function",
      "signature": "0xde48668e"
    },
    {
      "constant": false,
      "inputs": [
        {
          "name": "_name",
          "type": "string"
        },
        {
          "name": "_myRate",
          "type": "uint256"
        },
        {
          "name": "_myanimelistRate",
          "type": "uint256"
        },
        {
          "name": "description",
          "type": "string"
        },
        {
          "name": "dateDoneWatching",
          "type": "uint256"
        },
        {
          "name": "_tags",
          "type": "string[]"
        },
        {
          "name": "_status",
          "type": "string"
        },
        {
          "name": "_ending",
          "type": "string"
        }
      ],
      "name": "createAnime",
      "outputs": [],
      "payable": false,
      "stateMutability": "nonpayable",
      "type": "function",
      "signature": "0x87808da6"
    }
  ],
  "bytecode": "0x60806040526000805534801561001457600080fd5b50610b26806100246000396000f3fe608060405260043610610057576000357c0100000000000000000000000000000000000000000000000000000000900463ffffffff1680632bcba1dd1461005c57806387808da6146100a0578063de48668e146100c9575b600080fd5b34801561006857600080fd5b50610083600480360361007e91908101906108aa565b6100f4565b604051610097989796959493929190610933565b60405180910390f35b3480156100ac57600080fd5b506100c760048036036100c29190810190610780565b61039c565b005b3480156100d557600080fd5b506100de6104cb565b6040516100eb9190610918565b60405180910390f35b6001602052806000526040600020600091509050806000015490806001018054600181600116156101000203166002900480601f0160208091040260200160405190810160405280929190818152602001828054600181600116156101000203166002900480156101a65780601f1061017b576101008083540402835291602001916101a6565b820191906000526020600020905b81548152906001019060200180831161018957829003601f168201915b505050505090806002015490806003015490806004018054600181600116156101000203166002900480601f0160208091040260200160405190810160405280929190818152602001828054600181600116156101000203166002900480156102505780601f1061022557610100808354040283529160200191610250565b820191906000526020600020905b81548152906001019060200180831161023357829003601f168201915b505050505090806005015490806007018054600181600116156101000203166002900480601f0160208091040260200160405190810160405280929190818152602001828054600181600116156101000203166002900480156102f45780601f106102c9576101008083540402835291602001916102f4565b820191906000526020600020905b8154815290600101906020018083116102d757829003601f168201915b505050505090806008018054600181600116156101000203166002900480601f0160208091040260200160405190810160405280929190818152602001828054600181600116156101000203166002900480156103925780601f1061036757610100808354040283529160200191610392565b820191906000526020600020905b81548152906001019060200180831161037557829003601f168201915b5050505050905088565b600080815480929190600101919050555061012060405190810160405280600054815260200189815260200188815260200187815260200186815260200185815260200184815260200183815260200182815250600160008054815260200190815260200160002060008201518160000155602082015181600101908051906020019061042a9291906104d1565b506040820151816002015560608201518160030155608082015181600401908051906020019061045b9291906104d1565b5060a0820151816005015560c0820151816006019080519060200190610482929190610551565b5060e082015181600701908051906020019061049f9291906104d1565b506101008201518160080190805190602001906104bd9291906104d1565b509050505050505050505050565b60005481565b828054600181600116156101000203166002900490600052602060002090601f016020900481019282601f1061051257805160ff1916838001178555610540565b82800160010185558215610540579182015b8281111561053f578251825591602001919060010190610524565b5b50905061054d91906105b1565b5090565b8280548282559060005260206000209081019282156105a0579160200282015b8281111561059f57825182908051906020019061058f9291906104d1565b5091602001919060010190610571565b5b5090506105ad91906105d6565b5090565b6105d391905b808211156105cf5760008160009055506001016105b7565b5090565b90565b6105ff91905b808211156105fb57600081816105f29190610602565b506001016105dc565b5090565b90565b50805460018160011615610100020316600290046000825580601f106106285750610647565b601f01602090049060005260206000209081019061064691906105b1565b5b50565b600082601f830112151561065d57600080fd5b813561067061066b826109fa565b6109cd565b9150818183526020840193506020810190508360005b838110156106b6578135860161069c88826106c0565b845260208401935060208301925050600181019050610686565b5050505092915050565b600082601f83011215156106d357600080fd5b81356106e66106e182610a22565b6109cd565b9150808252602083016020830185838301111561070257600080fd5b61070d838284610a99565b50505092915050565b600082601f830112151561072957600080fd5b813561073c61073782610a4e565b6109cd565b9150808252602083016020830185838301111561075857600080fd5b610763838284610a99565b50505092915050565b60006107788235610a8f565b905092915050565b600080600080600080600080610100898b03121561079d57600080fd5b600089013567ffffffffffffffff8111156107b757600080fd5b6107c38b828c01610716565b98505060206107d48b828c0161076c565b97505060406107e58b828c0161076c565b965050606089013567ffffffffffffffff81111561080257600080fd5b61080e8b828c01610716565b955050608061081f8b828c0161076c565b94505060a089013567ffffffffffffffff81111561083c57600080fd5b6108488b828c0161064a565b93505060c089013567ffffffffffffffff81111561086557600080fd5b6108718b828c01610716565b92505060e089013567ffffffffffffffff81111561088e57600080fd5b61089a8b828c01610716565b9150509295985092959890939650565b6000602082840312156108bc57600080fd5b60006108ca8482850161076c565b91505092915050565b60006108de82610a7a565b8084526108f2816020860160208601610aa8565b6108fb81610adb565b602085010191505092915050565b61091281610a85565b82525050565b600060208201905061092d6000830184610909565b92915050565b600061010082019050610949600083018b610909565b818103602083015261095b818a6108d3565b905061096a6040830189610909565b6109776060830188610909565b818103608083015261098981876108d3565b905061099860a0830186610909565b81810360c08301526109aa81856108d3565b905081810360e08301526109be81846108d3565b90509998505050505050505050565b6000604051905081810181811067ffffffffffffffff821117156109f057600080fd5b8060405250919050565b600067ffffffffffffffff821115610a1157600080fd5b602082029050602081019050919050565b600067ffffffffffffffff821115610a3957600080fd5b601f19601f8301169050602081019050919050565b600067ffffffffffffffff821115610a6557600080fd5b601f19601f8301169050602081019050919050565b600081519050919050565b6000819050919050565b6000819050919050565b82818337600083830152505050565b60005b83811015610ac6578082015181840152602081019050610aab565b83811115610ad5576000848401525b50505050565b6000601f19601f830116905091905056fea265627a7a723058200b402c362341f6763745e1cd79834d970bc11aca1ce405995fd92d065464c91a6c6578706572696d656e74616cf50037",
  "source": "// SPDX-License-Identifier: UNLICENSED\npragma solidity >=0.4.22 <0.9.0;\npragma experimental ABIEncoderV2;\n\ncontract Animes {\n  uint public animeCount = 0;\n  \n  struct Anime {\n    uint id;\n    string name;\n    uint myRate;\n    uint myanimelistRate;\n    string description;\n    uint dateDoneWatching;\n    string[] tags;\n    string status;\n    string ending;\n  }\n\n  mapping(uint => Anime) public animes;\n\n  function createAnime(\n    string memory _name,\n    uint _myRate,\n    uint _myanimelistRate,\n    string memory description,\n    uint dateDoneWatching,\n    string[] memory _tags,\n    string memory _status,\n    string memory _ending\n  ) public {\n    animeCount++;\n\n    animes[animeCount] = Anime(\n      animeCount,\n      _name,\n      _myRate,\n      _myanimelistRate,\n      description,\n      dateDoneWatching,\n      _tags,\n      _status,\n      _ending\n    );\n  }\n}",
  "sourcePath": "/Users/baoanh/Documents/workspace/blockchain/eth-blogs/contracts/contracts/Animes.sol",
  "compiler": {
    "name": "solc",
    "version": "0.5.0+commit.1d4f565a.Emscripten.clang"
  },
  "schemaVersion": "3.0.1",
  "updatedAt": "2022-01-21T09:09:44.879Z",
  "devdoc": {
    "methods": {}
  },
  "userdoc": {
    "methods": {}
  }
}