{
  "contractName": "Animes",
  "abi": [
    {
      "constant": true,
      "inputs": [],
      "name": "animeCount",
      "outputs": [
        {
          "name": "",
          "type": "uint256"
        }
      ],
      "payable": false,
      "stateMutability": "view",
      "type": "function",
      "signature": "0xde48668e"
    }
  ],
  "bytecode": "0x608060405260008055348015601357600080fd5b50609e806100226000396000f3fe608060405260043610603f576000357c0100000000000000000000000000000000000000000000000000000000900463ffffffff168063de48668e146044575b600080fd5b348015604f57600080fd5b506056606c565b6040518082815260200191505060405180910390f35b6000548156fea165627a7a723058200e74adf48581f295c4ebb4c0c72fa3b22213a7a75adceb2926ff81f5ddb6339f0029",
  "source": "// SPDX-License-Identifier: UNLICENSED\npragma solidity >=0.4.22 <0.9.0;\n\ncontract Animes {\n  uint public animeCount = 0;\n  \n}",
  "sourcePath": "/Users/baoanh/Documents/workspace/blockchain/eth-blogs/contracts/contracts/Animes.sol",
  "compiler": {
    "name": "solc",
    "version": "0.5.0+commit.1d4f565a.Emscripten.clang"
  },
  "schemaVersion": "3.0.1",
  "updatedAt": "2022-01-20T06:44:40.943Z",
  "devdoc": {
    "methods": {}
  },
  "userdoc": {
    "methods": {}
  }
}