{
  "contractName": "Todos",
  "abi": [
    {
      "constant": true,
      "inputs": [
        {
          "name": "",
          "type": "uint256"
        }
      ],
      "name": "todos",
      "outputs": [
        {
          "name": "id",
          "type": "uint256"
        },
        {
          "name": "content",
          "type": "string"
        },
        {
          "name": "completed",
          "type": "bool"
        }
      ],
      "payable": false,
      "stateMutability": "view",
      "type": "function",
      "signature": "0xbc8bc2b4"
    },
    {
      "constant": true,
      "inputs": [],
      "name": "todoCount",
      "outputs": [
        {
          "name": "",
          "type": "uint256"
        }
      ],
      "payable": false,
      "stateMutability": "view",
      "type": "function",
      "signature": "0xfe0dee17"
    },
    {
      "constant": false,
      "inputs": [
        {
          "name": "_content",
          "type": "string"
        }
      ],
      "name": "createTodo",
      "outputs": [],
      "payable": false,
      "stateMutability": "nonpayable",
      "type": "function",
      "signature": "0xe34f1221"
    },
    {
      "constant": false,
      "inputs": [
        {
          "name": "id",
          "type": "uint256"
        }
      ],
      "name": "toggleCompleteTodo",
      "outputs": [],
      "payable": false,
      "stateMutability": "nonpayable",
      "type": "function",
      "signature": "0xd0564baa"
    },
    {
      "constant": false,
      "inputs": [
        {
          "name": "id",
          "type": "uint256"
        }
      ],
      "name": "deleteTodo",
      "outputs": [],
      "payable": false,
      "stateMutability": "nonpayable",
      "type": "function",
      "signature": "0x6e3c6738"
    }
  ],
  "bytecode": "0x60806040526000805534801561001457600080fd5b506105bc806100246000396000f3fe60806040526004361061006d576000357c0100000000000000000000000000000000000000000000000000000000900463ffffffff1680636e3c673814610072578063bc8bc2b4146100ad578063d0564baa14610173578063e34f1221146101ae578063fe0dee1714610276575b600080fd5b34801561007e57600080fd5b506100ab6004803603602081101561009557600080fd5b81019080803590602001909291905050506102a1565b005b3480156100b957600080fd5b506100e6600480360360208110156100d057600080fd5b81019080803590602001909291905050506102e6565b604051808481526020018060200183151515158152602001828103825284818151815260200191508051906020019080838360005b8381101561013657808201518184015260208101905061011b565b50505050905090810190601f1680156101635780820380516001836020036101000a031916815260200191505b5094505050505060405180910390f35b34801561017f57600080fd5b506101ac6004803603602081101561019657600080fd5b81019080803590602001909291905050506103b5565b005b3480156101ba57600080fd5b50610274600480360360208110156101d157600080fd5b81019080803590602001906401000000008111156101ee57600080fd5b82018360208201111561020057600080fd5b8035906020019184600183028401116401000000008311171561022257600080fd5b91908080601f016020809104026020016040519081016040528093929190818152602001838380828437600081840152601f19601f82011690508083019250505050505050919291929050505061040a565b005b34801561028257600080fd5b5061028b61049d565b6040518082815260200191505060405180910390f35b600160008281526020019081526020016000206000808201600090556001820160006102cd91906104a3565b6002820160006101000a81549060ff0219169055505050565b6001602052806000526040600020600091509050806000015490806001018054600181600116156101000203166002900480601f0160208091040260200160405190810160405280929190818152602001828054600181600116156101000203166002900480156103985780601f1061036d57610100808354040283529160200191610398565b820191906000526020600020905b81548152906001019060200180831161037b57829003601f168201915b5050505050908060020160009054906101000a900460ff16905083565b6001600082815260200190815260200160002060020160009054906101000a900460ff16156001600083815260200190815260200160002060020160006101000a81548160ff02191690831515021790555050565b600080815480929190600101919050555060606040519081016040528060005481526020018281526020016000151581525060016000805481526020019081526020016000206000820151816000015560208201518160010190805190602001906104769291906104eb565b5060408201518160020160006101000a81548160ff02191690831515021790555090505050565b60005481565b50805460018160011615610100020316600290046000825580601f106104c957506104e8565b601f0160209004906000526020600020908101906104e7919061056b565b5b50565b828054600181600116156101000203166002900490600052602060002090601f016020900481019282601f1061052c57805160ff191683800117855561055a565b8280016001018555821561055a579182015b8281111561055957825182559160200191906001019061053e565b5b509050610567919061056b565b5090565b61058d91905b80821115610589576000816000905550600101610571565b5090565b9056fea165627a7a72305820f38ea5233ca0760106ee33b419ffa46571f88807a1cb2bda3fdd956cf0abb5ae0029",
  "source": "// SPDX-License-Identifier: UNLICENSED\npragma solidity >=0.4.22 <0.9.0;\n\ncontract Todos {\n  uint public todoCount = 0;\n\n  struct Todo {\n    uint id;\n    string content;\n    bool completed;\n  }\n\n  mapping(uint => Todo) public todos;\n\n  function createTodo(string memory _content) public {\n    todoCount++;\n    todos[todoCount] = Todo(todoCount, _content, false);\n  }\n\n  function toggleCompleteTodo(uint id) public {\n    todos[id].completed = !todos[id].completed;\n  }\n\n  function deleteTodo(uint id) public {\n    delete todos[id];\n  }\n}\n",
  "sourcePath": "/Users/baoanh/Documents/workspace/blockchain/eth-blogs/contracts/contracts/Todos.sol",
  "compiler": {
    "name": "solc",
    "version": "0.5.0+commit.1d4f565a.Emscripten.clang"
  },
  "schemaVersion": "3.0.1",
  "updatedAt": "2022-01-22T12:45:54.903Z",
  "devdoc": {
    "methods": {}
  },
  "userdoc": {
    "methods": {}
  }
}