{
  "contractName": "Todos",
  "abi": [
    {
      "constant": true,
      "inputs": [
        {
          "name": "",
          "type": "uint256"
        }
      ],
      "name": "todos",
      "outputs": [
        {
          "name": "content",
          "type": "string"
        },
        {
          "name": "completed",
          "type": "bool"
        }
      ],
      "payable": false,
      "stateMutability": "view",
      "type": "function",
      "signature": "0xbc8bc2b4"
    },
    {
      "constant": true,
      "inputs": [],
      "name": "todoCount",
      "outputs": [
        {
          "name": "",
          "type": "uint256"
        }
      ],
      "payable": false,
      "stateMutability": "view",
      "type": "function",
      "signature": "0xfe0dee17"
    },
    {
      "constant": false,
      "inputs": [
        {
          "name": "_content",
          "type": "string"
        }
      ],
      "name": "createTodo",
      "outputs": [],
      "payable": false,
      "stateMutability": "nonpayable",
      "type": "function",
      "signature": "0xe34f1221"
    }
  ],
  "bytecode": "0x60806040526000805534801561001457600080fd5b5061042e806100246000396000f3fe608060405260043610610057576000357c0100000000000000000000000000000000000000000000000000000000900463ffffffff168063bc8bc2b41461005c578063e34f12211461011b578063fe0dee17146101e3575b600080fd5b34801561006857600080fd5b506100956004803603602081101561007f57600080fd5b810190808035906020019092919050505061020e565b604051808060200183151515158152602001828103825284818151815260200191508051906020019080838360005b838110156100df5780820151818401526020810190506100c4565b50505050905090810190601f16801561010c5780820380516001836020036101000a031916815260200191505b50935050505060405180910390f35b34801561012757600080fd5b506101e16004803603602081101561013e57600080fd5b810190808035906020019064010000000081111561015b57600080fd5b82018360208201111561016d57600080fd5b8035906020019184600183028401116401000000008311171561018f57600080fd5b91908080601f016020809104026020016040519081016040528093929190818152602001838380828437600081840152601f19601f8201169050808301925050505050505091929192905050506102d7565b005b3480156101ef57600080fd5b506101f8610357565b6040518082815260200191505060405180910390f35b6001602052806000526040600020600091509050806000018054600181600116156101000203166002900480601f0160208091040260200160405190810160405280929190818152602001828054600181600116156101000203166002900480156102ba5780601f1061028f576101008083540402835291602001916102ba565b820191906000526020600020905b81548152906001019060200180831161029d57829003601f168201915b5050505050908060010160009054906101000a900460ff16905082565b60008081548092919060010191905055506040805190810160405280828152602001600015158152506001600080548152602001908152602001600020600082015181600001908051906020019061033092919061035d565b5060208201518160010160006101000a81548160ff02191690831515021790555090505050565b60005481565b828054600181600116156101000203166002900490600052602060002090601f016020900481019282601f1061039e57805160ff19168380011785556103cc565b828001600101855582156103cc579182015b828111156103cb5782518255916020019190600101906103b0565b5b5090506103d991906103dd565b5090565b6103ff91905b808211156103fb5760008160009055506001016103e3565b5090565b9056fea165627a7a7230582055f8aacdece850e8a2d820f56e70b6bb0dda1285e7c1c37444fc1bac0c0512180029",
  "source": "// SPDX-License-Identifier: UNLICENSED\npragma solidity >=0.4.22 <0.9.0;\n\ncontract Todos {\n  uint public todoCount = 0;\n\n  struct Todo {\n    string content;\n    bool completed;\n  }\n\n  mapping(uint => Todo) public todos;\n\n  function createTodo(string memory _content) public {\n    todoCount++;\n    todos[todoCount] = Todo(_content, false);\n  }\n}\n",
  "sourcePath": "/Users/baoanh/Documents/workspace/blockchain/eth-blogs/contracts/contracts/Todos.sol",
  "compiler": {
    "name": "solc",
    "version": "0.5.0+commit.1d4f565a.Emscripten.clang"
  },
  "schemaVersion": "3.0.1",
  "updatedAt": "2022-01-21T10:11:14.382Z",
  "devdoc": {
    "methods": {}
  },
  "userdoc": {
    "methods": {}
  }
}